:020000040800F2
:10000000244B01205D080008B9080008B908000861
:10001000B9080008B9080008B90800080000000085
:10002000000000000000000000000000B908000807
:10003000B908000800000000250200087D02000841
:10004000B9080008B9080008B9080008B90800088C
:10005000B9080008B9080008B9080008B90800087C
:10006000B9080008B9080008B9080008B90800086C
:10007000B9080008B9080008B9080008B90800085C
:10008000B9080008B9080008B9080008B90800084C
:10009000B9080008B9080008B9080008B90800083C
:1000A000B9080008B9080008B9080008B90800082C
:1000B00091200008B9080008B9080008B90800082C
:1000C000B9080008B9080008B9080008B90800080C
:1000D000B9080008B9080008C5070008B9080008F1
:1000E000B9080008B9080008B9080008B9080008EC
:1000F000B9080008B9080008B9080008B9080008DC
:10010000B9080008B9080008B9080008B9080008CB
:10011000B9080008B9080008B9080008B9080008BB
:10012000B9080008B9080008B9080008B9080008AB
:10013000B9080008B9080008B9080008B90800089B
:10014000B9080008B9080008B9080008B90800088B
:100150004D210008B9080008B9080008B9080008CE
:10016000B9080008B9080008B9080008B90800086B
:10017000B9080008B9080008B9080008B90800085B
:10018000B9080008B908000880B485B000AF7860ED
:100190000DE00023FB6002E0FB680133FB60FA68BE
:1001A000074B1B689A42F7D37B68013B7B607B68F7
:1001B000002BEED100BF1437BD4680BC704700BF96
:1001C0002400002072B6704762B6704772B60E48BF
:1001D000FF210170002080F309880C48016881F339
:1001E00008880B48012101700A484FF080510160D6
:1001F00062B6FEE707484FF080510160704705483E
:100200004FF080510160704722ED00E0280000208F
:10021000FA2F012004ED00E080B400AF00BFBD461E
:1002200080BC704780B400AF72B6EFF3098028B18C
:10023000203880E8F00F0D49096808600C480D4926
:100240000A78027009480C490A680260106890E850
:10025000F00F203080F309884EF0040E7FF0020E7C
:1002600062B6704700BFBD4680BC70476431012054
:1002700054300120003001204831012080B582B087
:1002800000AF72B600B5FFF79DFF78600A4B1B7890
:100290000133DAB2084B1A707868FFF795FF00F067
:1002A000E9FE00F095FE5DF804EB4EF0040E62B638
:1002B00000BF0837BD4680BD6031012080B58AB0DF
:1002C00000AF7860396000237B6200233B6200232B
:1002D000FB610023BB617B681B8A9BB27B627B6AEC
:1002E00023F440537B623B68DB881A467B6A1343E6
:1002F0007B627B6A9AB27B681A827B689B899BB21D
:100300007B627B6A23F4B05323F00C037B623B686F
:100310009A883B681B8913439AB23B685B891343F5
:100320009BB21A467B6A13437B627B6A9AB27B68F4
:100330009A817B689B8A9BB27B627B6A23F44073C1
:100340007B623B689B891A467B6A13437B627B6AAC
:100350009AB27B689A8207F10803184600F042FBC4
:100360007B68304A934203D07B682F4A934202D184
:100370007B693B6201E03B693B627B689B899BB286
:100380001BB2002B0CDA3A6A13469B0013449A0006
:100390001A443B681B685B00B2FBF3F3FB610BE0A4
:1003A0003A6A13469B0013449A001A443B681B6840
:1003B0009B00B2FBF3F3FB61FB691C4AA2FB032326
:1003C0005B091B017B627B6A1B09642202FB03F34E
:1003D000FA69D31ABB617B689B899BB21BB2002B65
:1003E0000CDABB69DB003233104AA2FB03235B0942
:1003F00003F007037A6A13437B620BE0BB691B01BE
:1004000032330A4AA2FB03235B0903F00F037A6A23
:1004100013437B627B6A9AB27B681A8100BF2837DC
:10042000BD4680BD00100140001401401F85EB5106
:1004300080B483B000AF78600B46FB70FB78002B74
:1004400008D07B689B899BB243F400539AB27B68C7
:100450009A8107E07B689B899BB223F400539AB290
:100460007B689A8100BF0C37BD4680BC704700BFD7
:1004700080B483B000AF78600B467B807B88C3F389
:1004800008039AB27B689A8000BF0C37BD4680BCD7
:10049000704700BF80B487B000AF78600B467B80A8
:1004A00013467B7000233B610023FB600023BB608D
:1004B00000237B617B687B617B88DBB25B09DBB2FD
:1004C0003B617B8803F01F03FB600122FB6802FA9B
:1004D00003F3BB603B69012B03D17B690C337B6168
:1004E00009E03B69022B03D17B6910337B6102E099
:1004F0007B6914337B617B78002B06D07B697A693A
:100500001168BA680A431A6006E07B697A69116863
:10051000BA68D2430A401A6000BF1C37BD4680BC8F
:10052000704700BF80B485B000AF78600B467B8019
:100530000023FB737B681B889AB27B8813409BB2B5
:10054000002B02D00123FB7301E00023FB73FB7B34
:1005500018461437BD4680BC704700BF80B487B0D2
:1005600000AF78600B467B800023FB6000237B613B
:100570000023BB600023FB747B88DBB25B09DBB22A
:10058000BB607B8803F01F037B6101227B6902FA59
:1005900003F37B61BB68012B07D17B689B899BB20E
:1005A0001A467B6913407B6111E0BB68022B07D1BF
:1005B0007B681B8A9BB21A467B6913407B6106E00D
:1005C0007B689B8A9BB21A467B6913407B617B8860
:1005D0001B0A9BB2FB600122FB6802FA03F3FB607B
:1005E0007B681B889BB21A46FB681340FB607B69E3
:1005F000002B05D0FB68002B02D00123FB7401E027
:100600000023FB74FB7C18461C37BD4680BC70473A
:1006100080B485B000AF78600B467B800023FB81FF
:100620000023BB817B881B0AFB81FB89012202FA24
:1006300003F3BB81BB89DB439AB27B681A8000BF9E
:100640001437BD4680BC704780B586B002AFF860F5
:10065000B9607A603B607B6A01933B6A00933B68B8
:100660007A68B968F86800F0C1FA7B6A01933B6A5E
:100670000093FB69BA693968786800F0B7FA7B6A59
:1006800001933B6A0093BB68FA68F969B86900F0A6
:10069000ADFA00BF1037BD4680BD00BF80B586B043
:1006A00000AF01214FF4003000F064FA0121012075
:1006B00000F042FA0C233B6102233B750023BB751B
:1006C0000123FB7502237B7507F1100319461648B9
:1006D00000F00EFE07220221134800F0CDFE072293
:1006E0000321114800F0C8FE4FF434433B6000235F
:1006F000BB800023FB8000233B810023BB810C23B4
:100700007B813B4619460948FFF7D8FD012240F29C
:1007100025510648FFF7BEFE01210448FFF788FE79
:1007200000BF1837BD4680BD0000024000440040B5
:1007300080B582B000AF0346FB7100BF802108483E
:10074000FFF7F0FE0346002BF8D0FB799BB2194669
:100750000348FFF78DFE00BF0837BD4680BD00BFD0
:100760000044004080B584B000AF78600023FB6097
:1007700009E0FB687A6813441B781846FFF7D8FF36
:10078000FB680133FB60FB687A6813441B78002B1D
:10079000EFD100BF1037BD4680BD00BF80B582B02D
:1007A00000AF26233B7101237B710123BB71012321
:1007B000FB713B1D184601F0EFFC00BF0837BD463A
:1007C00080BD00BF80B582B000AF40F225511F4808
:1007D000FFF7C4FE0346002B34D040F225511B48DE
:1007E000FFF716FF00237B60184B9B889BB2FB70C2
:1007F000174B1B681749FA78CA54154B1B68154AE2
:10080000D35C0D2B19D11348FFF7ACFF64221149BB
:10081000114802F043FA00237B6007E00D4A7B6831
:10082000134400221A707B6801337B607B68642B61
:10083000F4DD074B00221A6004E0054B1B6801330E
:10084000034A136000BF0837BD4680BD0044004026
:1008500010000020300200209802002080B582B0F5
:1008600000AF104B7B60104B3B6007E03B681A1DEC
:100870003A607A68111D796012681A603B680B4A09
:100880009342F3D30A480B494FF000028842B8BFA5
:1008900040F8042BFADB00F013F800BF0837BD4620
:1008A00080BD00BF1E2E00080000002010000020A8
:1008B000100000202843012080B400AFFEE700BFF5
:1008C00080B594B004AFFFF7E9FEFFF767FF01F0D2
:1008D000EDF86423FB639623BB6364237B63962359
:1008E0003B630123FB620023BB6232237B62142340
:1008F0003B625023FB618E23BB6180237B61384ABE
:100900003B1D92E8030083E803003B1D3B616B2322
:10091000FB733B1D3B6100F0F7FD01F003FA002083
:1009200001F040FA17230393012302935A23019302
:100930001E230093462337220A210A20FFF784FE54
:100940002D230393022302930F2301936223009329
:100950004C23D42241211720FFF776FE4323039333
:1009600005230293BF2301932D230093DE232D2221
:100970004D217B20FFF768FE592303930123029347
:100980006F2301934FF4827300931C23E122A8216B
:100990007320FFF759FEEA230393052302936F2385
:1009A000019340F2131300931C23F022A82182200C
:1009B000FFF74AFE7B2303930A2302936F230193DD
:1009C0004FF4967300931C2340F20912A8219B2038
:1009D000FFF73AFE00F010FC01F056F8FEE700BF0A
:1009E000042D000880B489B000AF78600023BB619B
:1009F00000237B610023FB6102233B610023FB603A
:100A00000223BB60484B9B6803F00C03BB61BB69CE
:100A1000042B07D0082B09D0002B3FD17B68434A19
:100A20001A603FE07B68424A1A603BE03E4B5B68DD
:100A300003F480039B0DFB603B4B5B6803F03F03BB
:100A4000BB60FB68002B0DD0394ABB68B2FBF3F2E8
:100A5000354B596847F6C0730B409B0903FB02F303
:100A6000FB610CE0314ABB68B2FBF3F22E4B5968D4
:100A700047F6C0730B409B0903FB02F3FB612A4B53
:100A80005B6803F440331B0C01335B003B61FA6984
:100A90003B69B2FBF3F27B681A6003E07B68234A90
:100AA0001A6000BF204B9B6803F0F003BB61BB6979
:100AB0001B09BB611F4ABB6913441B78DBB27B6116
:100AC0007B681A687B69DA407B685A60164B9B68C2
:100AD00003F4E053BB61BB699B0ABB61154ABB6968
:100AE00013441B78DBB27B617B685A687B69DA4010
:100AF0007B689A600C4B9B6803F46043BB61BB69E5
:100B00005B0BBB610B4ABB6913441B78DBB27B6197
:100B10007B685A687B69DA407B68DA6000BF2437FB
:100B2000BD4680BC704700BF003802400024F4007E
:100B300000127A000000002080B483B000AF78601B
:100B40000B46FB70FB78002B06D00949084B1A6B4B
:100B50007B6813430B6306E00549054B1A6B7B6802
:100B6000DB4313400B6300BF0C37BD4680BC7047AE
:100B70000038024080B483B000AF78600B46FB7051
:100B8000FB78002B06D00949084B1A6C7B6813438D
:100B90000B6406E00549054B1A6C7B68DB43134088
:100BA0000B6400BF0C37BD4680BC70470038024064
:100BB00080B483B000AF78600B46FB70FB78002BED
:100BC00006D00949084B5A6C7B6813434B6406E016
:100BD0000549054B5A6C7B68DB4313404B6400BFEF
:100BE0000C37BD4680BC70470038024090B593B0CA
:100BF00000AFF860B9607A603B6000237B64DDE1A0
:100C00000023A7F84230BA683B68D31A002BB8BF5C
:100C10005B42184601F002FE0346FB61FA687B68FE
:100C2000D31A002BB8BF5B42184601F0F7FD03460C
:100C3000BB61B969F86901F0F9FE03467B61FA68A6
:100C40007B689A420BDBBA683B689A4203DB01235C
:100C5000A7F842300EE00423A7F842300AE0BA6851
:100C60003B689A4203DC0323A7F8423002E00223E8
:100C7000A7F842304FF07E51786901F0CBFF034670
:100C8000002B00F0B680B7F84230013B032B00F296
:100C90007D8101A252F823F0A90C0008FB0C00088A
:100CA0004D0D00089F0D00080023FB6319E07A68D2
:100CB000FB6BD418F86B01F0B1FD03467969184657
:100CC00001F000FE0346184601F0C2FF02463B68F1
:100CD0001344FA6D1946204601F086F8FB6B013388
:100CE000FB63F86B01F09AFD0346B969184601F001
:100CF00087FF0346002BDAD148E10023BB6319E0EC
:100D00007A68BB6BD41AB86B01F088FD0346796929
:100D1000184601F0D7FD0346184601F099FF024638
:100D20003B681344FA6D1946204601F05DF8BB6B31
:100D30000133BB63B86B01F071FD0346B969184616
:100D400001F05EFF0346002BDAD11FE100237B6335
:100D500019E0FA687B6BD418786B01F05FFD0346ED
:100D60007969184601F0AEFD0346184601F070FFA0
:100D70000246BB681344FA6D1946204601F034F868
:100D80007B6B01337B63786B01F048FD0346B969E7
:100D9000184601F035FF0346002BDAD1F6E00023B8
:100DA0003B6319E0FA683B6BD41A386B01F036FDEF
:100DB00003467969184601F085FD0346184601F09F
:100DC00047FF0246BB681344FA6D1946204601F0FE
:100DD0000BF83B6B01333B63386B01F01FFD03469F
:100DE000B969184601F00CFF0346002BDAD100BFA9
:100DF000CCE0B7F84230013B032B00F2C78001A2E0
:100E000052F823F0150E0008730E0008D10E0008EA
:100E10002F0F00080023FB621FE079694FF07E501E
:100E200001F004FE03461C46F86A01F0F7FC034695
:100E30001946204601F046FD0346184601F008FF1A
:100E400002467B68D0183A68FB6A1344FA6D19466B
:100E500000F0CAFFFB6A0133FB62F86A01F0DEFCB6
:100E60000346F969184601F0CBFE0346002BD4D1A6
:100E70008CE00023BB621FE079694FF07E5001F0E7
:100E8000D5FD03461C46B86A01F0C8FC0346194666
:100E9000204601F017FD0346184601F0D9FE024630
:100EA0007B68981A3A68BB6A1344FA6D194600F0D9
:100EB0009BFFBB6A0133BB62B86A01F0AFFC03461B
:100EC000F969184601F09CFE0346002BD4D15DE081
:100ED00000237B621FE079694FF07E5001F0A6FD90
:100EE00003461C46786A01F099FC034619462046E1
:100EF00001F0E8FC0346184601F0AAFE0246FB6832
:100F0000D018BA687B6A1344FA6D194600F06CFF7A
:100F10007B6A01337B62786A01F080FC0346F969E1
:100F2000184601F06DFE0346002BD4D12EE00023BD
:100F30003B621FE079694FF07E5001F077FD034678
:100F40001C46386A01F06AFC03461946204601F047
:100F5000B9FC0346184601F07BFE0246FB68981A6E
:100F6000BA683B6A1344FA6D194600F03DFF3B6ACC
:100F700001333B62386A01F051FC0346F9691846B7
:100F800001F03EFE0346002BD4D100BF4FF07E514E
:100F9000786901F03FFE0346002B06D0BB680133A1
:100FA000BB603B6801333B6005E0FB680133FB60DD
:100FB0007B6801337B607B6C01337B647A6CBB6D37
:100FC0009A42FFF61DAE00BF4C37BD4690BD00BF34
:100FD00080B582B000AF00237B601E4B1B78012BD5
:100FE00033D1FFF7EFF878601B4B1B78002B05D04F
:100FF000194B1B78013BDAB2174B1A70164B1B7852
:10100000002B1FD1154B1B78002B1BD100F0D0F803
:10101000134B1B781A46134B53F82230124A1360B5
:101020000F4B1A78114B1B789A420BD00E4B1B6852
:10103000DA6B0132DA630E4B1B6801330C4A136022
:10104000FFF7DDF87868FFF7BFF800BF0837BD4647
:1010500080BD00BFFA2F012060310120F82F012050
:101060000030012028420120483101205430012065
:10107000D830012080B584B000AF00237B60FFF73B
:10108000CBF8FFF79FF87860434B1B680133424A67
:1010900013607868FFF798F8404B1B78012B77D1E5
:1010A0003F4B1B78012B06D0022B07D0002B0BD116
:1010B0000123FB720EE00023FB720BE00123FB72A5
:1010C000374B01221A7005E00123FB72344B0022DA
:1010D0001A7000BFFB7A002B59D0324B1B68FB60A3
:1010E0004FE0FFF76FF87860FB681B6B002B42D076
:1010F000FB681B6B5A1EFB681A63FB681B6B002B9B
:1011000039D1FB6893F8343003F03703002B0DD04E
:10111000FB6893F8343023F03703DAB2FB6883F8C6
:101120003420FB68012283F8352003E0FB680022AD
:1011300083F83520FB6893F8343003F00803002B64
:1011400019D1FB6893F83A20174B1B781343DAB296
:10115000154B1A70FB6893F838301946FB6893F802
:1011600038301A46114B9A5CFB6893F839301343B8
:10117000DAB20E4B5A54FB685B69FB607868FFF784
:1011800023F8FB6893F836303F2BAAD100E000BF6C
:101190001037BD4680BD00BF68310120FA2F012005
:1011A000D430012058300120503101205431012029
:1011B00080B483B000AF0C4B1B781A460B4B9B5C82
:1011C000FB71FB79DB00DAB2FB790949CB5C19468C
:1011D000064B5B5C1344DAB2064B1A7000BF0C3747
:1011E000BD4680BC704700BF503101200C2D000867
:1011F000543101200030012080B582B000AF0121C0
:101200000120FFF799FC01210220FFF795FC002344
:10121000BB710023FB7102237B7101233B714FF4EF
:1012200000433B603B461946134800F061F84FF419
:1012300080733B603B461946104800F059F8022382
:101240003B603B4619460D4800F052F84FF4004110
:10125000094800F003F94FF48071084800F0FEF8E7
:101260000221064800F0ECF8002000F009F800BF69
:101270000837BD4680BD00BF0000024000040240A8
:1012800080B584B000AF0346FB718023FB811CE076
:10129000FA79FB891340002B05D04FF40041124826
:1012A00000F0CEF804E04FF400410F4800F0D6F80B
:1012B0004FF480710D4800F0C3F84FF480710B4873
:1012C00000F0CCF8FB895B08FB81FB89002BDFD1A8
:1012D0000221064800F0B4F80221044800F0BEF8EC
:1012E00000BF1037BD4680BD000002400004024030
:1012F00080B487B000AF7860396000237B61002341
:101300003B610023FB6000237B6176E001227B6967
:1013100002FA03F33B613B681A683B691340FB60C8
:10132000FA683B699A4265D17B681A687B695B0001
:10133000032101FA03F3DB431A407B681A607B68E0
:101340001A683B681B7919467B695B0001FA03F355
:101350001A437B681A603B681B79012B03D03B68FA
:101360001B79022B2ED17B689A687B695B00032175
:1013700001FA03F3DB431A407B689A607B689A6842
:101380003B685B7919467B695B0001FA03F31A43FA
:101390007B689A607B685A687B699BB21946012317
:1013A0008B40DB431A407B685A607B685B683A6815
:1013B000927911467A6992B201FA02F292B21A4314
:1013C0007B685A607B68DA687B699BB25B000321AB
:1013D00001FA03F3DB431A407B68DA607B68DA6862
:1013E0003B68DB7919467B695B0001FA03F31A431A
:1013F0007B68DA607B6901337B617B690F2B85D960
:1014000000BF1C37BD4680BC704700BF80B485B0AC
:1014100000AF78600B467B800023FB737B681A6902
:101420007B881340002B02D00123FB7301E00023D3
:10143000FB73FB7B18461437BD4680BC704700BF6A
:1014400080B483B000AF78600B467B807B687A887D
:101450001A8300BF0C37BD4680BC704780B483B090
:1014600000AF78600B467B807B687A885A8300BF28
:101470000C37BD4680BC704780B485B000AF786043
:101480000B467B8013467B700023FB600023BB6010
:101490007A787B8803F007039B0002FA03F3FB6072
:1014A0007B88DB089BB218467B88DB089BB21A4618
:1014B0007B68083253F822207B8803F007039B00E7
:1014C0000F2101FA03F3DB4302EA03017B6800F119
:1014D000080243F822107B88DB089BB21A467B681F
:1014E000083253F82220FB681343BB607B88DB087B
:1014F0009BB21A467B680832B96843F8221000BFD5
:101500001437BD4680BC704780B500AF124A124BFD
:101510001B6843F0010313600F4B00229A600E4AD0
:101520000D4B1B6823F0847323F4803313600A4B44
:101530000A4A5A60084A084B1B6823F48023136048
:10154000054B0022DA6000F00DF8054B4FF0006209
:101550009A6000BF80BD00BF0038024010300024F8
:1015600000ED00E080B483B000AF00237B60002377
:101570003B60354A344B1B6843F480331360324B75
:101580001B6803F400333B607B6801337B603B687E
:10159000002B03D17B68B3F5A06FF0D12A4B1B68F9
:1015A00003F40033002B02D001233B6001E0002351
:1015B0003B603B68012B42D1234A234B1B6C43F019
:1015C00080531364214A214B1B6843F4804313600A
:1015D0001D4A1D4B9B6893601B4A1B4B9B6843F441
:1015E00000439360184A184B9B6843F4A0539360E0
:1015F000154B174A5A60144A134B1B6843F080730B
:10160000136000BF104B1B6803F00073002BF9D070
:10161000104B40F205621A600B4A0B4B9B6823F09B
:1016200003039360084A084B9B6843F002039360EE
:1016300000BF054B9B6803F00C03082BF9D100BFDA
:101640000C37BD4680BC7047003802400070004037
:1016500008544007003C024080B483B000AF78607B
:101660007B681B6823F001027B681A607B6800229C
:101670001A607B6800225A607B6800229A607B684F
:101680000022DA607B6800221A617B6821225A619D
:101690007B68454A934203D1444B3D229A607EE0E9
:1016A0007B68434A934204D1404B4FF474629A6082
:1016B00075E07B683F4A934204D13C4B4FF474126F
:1016C0009A606CE07B683C4A934204D1374B4FF000
:1016D00074629A6063E07B68384A934203D1334B6B
:1016E000374ADA605BE07B68364A934203D12F4B7E
:1016F000354ADA6053E07B68344A934203D12B4B7E
:10170000334ADA604BE07B68324A934204D1274B7C
:101710004FF03D52DA6042E07B682F4A934203D19A
:101720002E4B3D229A603AE07B682D4A934204D1C9
:101730002A4B4FF474629A6031E07B68294A9342E5
:1017400004D1264B4FF474129A6028E07B68264A35
:10175000934204D1214B4FF074629A601FE07B6882
:10176000224A934203D11D4B154ADA6017E07B6889
:101770001F4A934203D1194B134ADA600FE07B688A
:101780001C4A934203D1154B114ADA6007E07B688B
:10179000194A934203D1114B4FF03D52DA6000BF1A
:1017A0000C37BD4680BC70471060024000600240AC
:1017B0002860024040600240586002407060024071
:1017C0003D00002088600240400F0020A0600240E1
:1017D00000003D20B86002401064024000640240F6
:1017E0002864024040640240586402407064024031
:1017F00088640240A0640240B864024080B485B0AE
:1018000000AF786039600023FB607B681B68FB6079
:10181000FA68244B1340FB603B681A683B68DB683E
:101820001A433B685B691A433B689B691A433B68F0
:10183000DB691A433B681B6A1A433B685B6A1A43BD
:101840003B689B6A1A433B685B6B1A433B689B6B24
:101850001343FA681343FB607B68FA681A607B687D
:101860005B69FB60FB6823F00703FB603B68DA6A97
:101870003B681B6B1343FA681343FB607B68FA6891
:101880005A613B681A697B685A603B685A687B6892
:101890009A603B689A687B68DA6000BF1437BD467F
:1018A00080BC70473F801CF080B483B000AF78608C
:1018B0000B46FB70FB78002B06D07B681B6843F05F
:1018C00001027B681A6005E07B681B6823F0010257
:1018D0007B681A6000BF0C37BD4680BC704700BFF4
:1018E00080B485B000AFF860B9601346FB71BB6887
:1018F00003F08003002B0FD0FB79002B06D0FB6890
:101900005B6943F08002FB685A6105E0FB685B6934
:1019100023F08002FB685A61BB68802B14D0FB79EE
:10192000002B08D0FB681A68BB6803F01E031A433B
:10193000FB681A6008E0FB681A68BB6803F01E03C6
:10194000DB431A40FB681A6000BF1437BD4680BCF9
:10195000704700BF80B487B000AF78603960002363
:10196000FB750023FB600023BB607B68214A934228
:1019700002D8214B3B6101E0204B3B613B6823F0E7
:10198000F02323F0C313002B0AD03B68DB0A03F0DB
:101990001E03FB607B681A68FB681340BB6004E0B1
:1019A0007B685B6903F08003BB603B6803F0005316
:1019B000002B03D03B695B68FB6002E03B691B685E
:1019C000FB60FB6823F0F02323F08213FB60FA68CE
:1019D0003B681340002B05D0BB68002B02D00123CD
:1019E000FB7501E00023FB75FB7D18461C37BD46E7
:1019F00080BC70470F6402400060024000640240F7
:101A000080B485B000AF786039607B68104A93423B
:101A100002D8104BFB6001E00F4BFB603B6803F00A
:101A20000053002B07D03B6823F0F02323F08213F0
:101A3000FA68D36006E03B6823F0F02323F08213BA
:101A4000FA68936000BF1437BD4680BC704700BF82
:101A50000F640240006002400064024080B500AFA5
:101A600008210848FFF7FAFC10210648FFF7F6FCAA
:101A700020210448FFF7F2FC40210248FFF7EEFC6A
:101A800000BF80BD0010024080B500AF012000F013
:101A9000DDF8054B00221A700520FEF775FB00F0FB
:101AA000E9F800BF80BD00BF1400002080B582B0FF
:101AB00000AF01211020FFF73FF801210420FFF7BC
:101AC0003BF801210820FFF737F801233B71002381
:101AD000BB710023FB7102237B7178233B603B4683
:101AE00019462848FFF704FC4FF420533B603B465F
:101AF00019462548FFF7FCFB01233B603B4619468E
:101B00002248FFF7F5FB4FF400511F48FFF7A6FCF2
:101B100001211E48FFF7A2FC4FF400611A48FFF7AD
:101B20009DFC0F20FEF730FB302000F063F83220E0
:101B3000FEF72AFB302000F05DF8302000F05AF864
:101B4000022000F057F80520FEF71EFB2C2000F0C5
:101B500051F80F20FEF718FB0E2000F04BF80F2075
:101B6000FEF712FB012000F045F80F20FEF70CFBFA
:101B7000062000F03FF80F20FEF706FB00BF0837F5
:101B8000BD4680BD0010024000080240000C02402B
:101B900080B582B000AF0346FB71FFF75FFFFB79B2
:101BA00003F00103002B03D040211148FFF748FC4C
:101BB000FB7903F00203002B03D020210C48FFF730
:101BC0003FFCFB7903F00403002B03D010210848ED
:101BD000FFF736FCFB7903F00803002B03D0082144
:101BE0000348FFF72DFC00BF0837BD4680BD00BF8E
:101BF0000010024080B582B000AF0346FB710121A6
:101C00001148FFF71DFCFB791B09DBB21846FFF7F3
:101C1000BFFF01210C48FFF721FC00F02BF8012148
:101C20000948FFF70DFCFB7903F00F03DBB2184600
:101C3000FFF7AEFF01210448FFF710FC00F01AF88F
:101C400000BF0837BD4680BD000C024080B582B0A1
:101C500000AF0346FB714FF400510548FFF7FEFB50
:101C6000FB791846FFF7C6FF00BF0837BD4680BDA9
:101C70000008024080B584B000AF0023FB7301234D
:101C8000BB732FE078237B6000233B720023BB7281
:101C90000023FB7202237B723B1D19461E48FFF78F
:101CA00027FB4FF400511D48FFF7D8FB4FF40061AC
:101CB0001A48FFF7C5FB0120FEF766FA0121184814
:101CC000FFF7BEFB0120FEF75FFA40211248FFF745
:101CD0009DFB0346FB7301211148FFF7BFFB012069
:101CE000FEF752FAFA7BBB7B9A42CBD078237B601B
:101CF00001233B720023BB720023FB7202237B7221
:101D00003B1D19460448FFF7F3FA0120FEF73CFAA1
:101D100000BF1037BD4680BD0010024000080240E1
:101D2000000C024080B582B000AF1B4B00221A802D
:101D3000194B00225A60184B00229A600023BB8086
:101D400017E00023FB800DE0BA8813469B00134484
:101D50009B011A44FB881344104A0021D154FB888C
:101D60000133FB80FB88B3F5A07FEDD9BB8801333D
:101D7000BB80BB88EF2BE4D900F05CF800F0AEF834
:101D800000F03EF900F010F9054B1B68024A936021
:101D900000BF0837BD4680BDFC02002008030020BC
:101DA0008864024080B584B000AF0346FB71002315
:101DB000BB8112E00023FB8108E0FA79B989FB8935
:101DC000184600F011F8FB890133FB81FB89B3F55C
:101DD000A07FF2D3BB890133BB81BB89EF2BE9D94B
:101DE00000BF1037BD4680BD80B483B000AF03464E
:101DF000FB800B46BB801346FB70FB88B3F5A07FCE
:101E000001D30023FB80BB88EF2B01D90023BB80CB
:101E1000BA8813469B0013449B011A44FB88134461
:101E20000349FA78CA5400BF0C37BD4680BC7047DE
:101E30000803002080B582B000AF01211020FEF71A
:101E40007BFE4FF47F433B6001233B710023BB715A
:101E50000123FB7103237B713B4619461D48FFF7A5
:101E600047FA1C4B4FF47F425A8301210220FEF7B0
:101E700063FE4FF400633B6002233B7103237B71DD
:101E80000023BB710123FB713B4619461248FFF743
:101E90002FFA01220B211048FFF7EEFA0121022050
:101EA000FEF74AFE4FF480533B6001233B71002351
:101EB000BB710123FB7103237B713B461946064826
:101EC000FFF716FA044B4FF480521A8300BF08370D
:101ED000BD4680BD001002400004024080B588B0BD
:101EE00000AF01210120FEF763FE0B23BB6100233D
:101EF000BB820023BB830023FB8207F11403194636
:101F0000284800F0A9F901210120FEF733FE40F630
:101F10006B23BB610023BB820023BB830023FB82B6
:101F200007F1140319464FF0804000F095F9602343
:101F30003B8001237B804FF4D273BB600223BB81C3
:101F40003B4619464FF0804000F030FA08214FF030
:101F5000804000F017FB60233B8001237B804FF41F
:101F6000A073BB600223BB813B4619464FF0804003
:101F700000F0A2FA08214FF0804000F01FFB012181
:101F8000084800F0D3F901214FF0804000F0CEF96D
:101F900001214FF0804000F0E9F900BF2037BD4635
:101FA00080BD00BF0000014080B582B000AF0122BB
:101FB00010211248FFF794FC44233B7100237B71EE
:101FC0000023BB710123FB713B1D184600F0E4F8B0
:101FD000012208214FF0804000F00EFB1C233B71D2
:101FE00000237B710023BB710123FB713B1D18464D
:101FF00000F0D2F800BF0837BD4680BD88640240BB
:1020000080B590B000AF01214FF48000FEF794FD41
:1020100000211B48FFF748FC1948FFF71DFB4FF054
:1020200040637B60174BBB60174BFB6040233B61F9
:1020300040F241137B610023BB614FF48063FB617D
:1020400000233B6200237B620023BB624FF44033DA
:10205000FB6200233B6301237B630023BB630023FC
:10206000FB633B1D19460648FFF7C8FB01224FF4EE
:102070008071064800F0F4FA00BF4037BD4680BDCD
:10208000886402401510024008030020000001404F
:1020900080B500AF08214FF0804000F0D1FA264B08
:1020A0001B8801339AB2244B1A80234B1B88B3F54B
:1020B000037F05D9204B00221A80204A1E4B5A600C
:1020C0001D4B1B88012B04D81D4B4FF480525A83A3
:1020D00003E01B4B4FF480521A83174B1B88232BB2
:1020E00027D9154B1B8840F20222934221D8154A6A
:1020F000114B9B681360134A0F4B5B68D360124A05
:10210000114B1B889BB243F001039BB213800D4A15
:102110000C4B1B6843F001031360074B1B8803F053
:102120000103002B05D0044B5B6803F24113024A04
:10213000536000BF80BD00BFFC02002008030020E8
:1021400000040240886402400000014080B500AFF6
:102150000D490E48FFF7FEFB0346002B12D00A493B
:102160000A48FFF74DFC0A4A094B1B889BB223F033
:1021700001039BB21380054B00221A60054B4FF4FC
:102180007F425A8300BF80BD0088002088640240DF
:10219000000001400010024080B485B000AF7860BC
:1021A0000023FB730023BB730F237B737B68DB78F7
:1021B000002B38D0264BDB68DB4303F4E0631B0ABB
:1021C000FB73FB7BC3F10403BB737A7BFB7B42FA9B
:1021D00003F37B737B685B781A46BB7B02FA03F3DD
:1021E000FB737B689A787B7B1340DAB2FB7B1343EB
:1021F000FB73FB7B1B01FB73164A7B681B78134444
:10220000FA7B83F80023134A7B681B785B09DBB2F7
:1022100018467B681B7803F01F03012101FA03F3C2
:1022200042F820300FE00B497B681B785B09DBB27A
:1022300018467B681B7803F01F0301229A4000F1C7
:10224000200341F8232000BF1437BD4680BC7047EF
:1022500000ED00E000E100E080B485B000AF786000
:1022600039600023FB817B681B88FB817B68284ADF
:10227000934213D07B68274A93420FD07B68B3F117
:10228000804F0BD07B68244A934207D07B68234A57
:10229000934203D07B68224A934208D1FB8923F002
:1022A0007003FB813B685A88FB891343FB817B6881
:1022B0001C4A93420CD07B681B4A934208D0FB898E
:1022C00023F44073FB813B681A89FB891343FB812C
:1022D0007B68FA891A803B685A687B68DA623B68D7
:1022E0001A887B681A857B68094A934203D07B6809
:1022F000084A934204D13B689B7A9AB27B681A865B
:102300007B6801229A8200BF1437BD4680BC7047AB
:1023100000000140000401400004004000080040AB
:10232000000C0040001000400014004080B483B056
:1023300000AF78600B46FB70FB78002B08D07B6801
:102340001B889BB243F080039AB27B681A8007E037
:102350007B681B889BB223F080039AB27B681A804B
:1023600000BF0C37BD4680BC704700BF80B483B04F
:1023700000AF78600B46FB70FB78002B08D07B68C1
:102380001B889BB243F001039AB27B681A8007E076
:102390007B681B889BB223F001039AB27B681A808A
:1023A00000BF0C37BD4680BC704700BF80B485B00D
:1023B00000AF7860396000237B810023FB8100231C
:1023C000BB817B681B8C9BB223F480739AB27B68C1
:1023D0001A847B681B8CFB817B689B88BB817B6834
:1023E0009B8B7B817B8923F070037B817B8923F02E
:1023F00003037B813B681A887B8913437B81FB89BC
:1024000023F40073FB813B689B891B029AB2FB8912
:102410001343FB813B685B881B029AB2FB89134321
:10242000FB817B68224A934203D07B68214A934216
:102430002BD1FB8923F40063FB813B68DB891B0202
:102440009AB2FB891343FB81FB8923F48063FB81F0
:102450003B689B881B029AB2FB891343FB81BB89B3
:1024600023F48053BB81BB8923F40053BB813B68B9
:102470001B8A1B019AB2BB891343BB813B685B8AF1
:102480001B019AB2BB891343BB817B68BA899A80CE
:102490007B687A899A833B689A687B68DA637B6891
:1024A000FA891A8400BF1437BD4680BC704700BF4C
:1024B000000001400004014080B485B000AF7860A6
:1024C00039600023BB8100237B810023FB817B6873
:1024D0001B8C9BB223F480539AB27B681A847B686E
:1024E0001B8C7B817B689B88FB817B689B8BBB8182
:1024F000BB8923F4E043BB81BB8923F44073BB81D8
:102500003B681B881B029AB2BB891343BB817B8942
:1025100023F400537B813B689B891B039AB27B8920
:1025200013437B813B685B881B039AB27B8913430F
:102530007B817B68114A934203D07B68104A9342A7
:102540000AD1FB8923F48043FB813B681B8A9B01F2
:102550009AB2FB891343FB817B68FA899A807B6876
:10256000BA899A833B689A687B681A647B687A891F
:102570001A8400BF1437BD4680BC7047000001407C
:102580000004014080B485B000AF78600B467B80CA
:102590000023FB817B689B8BFB81FB8923F0080375
:1025A000FB81FA897B881343FB817B68FA899A83D4
:1025B00000BF1437BD4680BC704700BF80B485B0F3
:1025C00000AF78600B467B800023FB817B689B8B90
:1025D000FB81FB8923F40063FB817B881B029AB299
:1025E000FB891343FB817B68FA899A8300BF143708
:1025F000BD4680BC704700BF80B483B000AF786038
:102600000B467B8013467B707B78002B08D07B6861
:102610009B899AB27B8813439AB27B689A8109E0BE
:102620007B689B899AB27B88DB439BB213409AB24A
:102630007B689A8100BF0C37BD4680BC704700BFE5
:1026400080B483B000AF78600B467B807B88DB432F
:102650009AB27B681A8200BF0C37BD4680BC7047B7
:1026600080B483B000AF78600B467B8013467B70EC
:102670007B78002B08D07B689B899AB27B881343B8
:102680009AB27B689A8109E07B689B899AB27B88C1
:10269000DB439BB213409AB27B689A8100BF0C3730
:1026A000BD4680BC704700BF80F0004002E000BF24
:1026B00081F0004142001FBF5FEA410392EA030F2D
:1026C0007FEA226C7FEA236C6AD04FEA1262D2EB77
:1026D0001363C1BFD218414048404140B8BF5B427C
:1026E000192B88BF704710F0004F40F4000020F015
:1026F0007F4018BF404211F0004F41F4000121F02B
:102700007F4118BF494292EA030F3FD0A2F1010274
:1027100041FA03FC10EB0C00C3F1200301FA03F1B2
:1027200000F0004302D5494260EB4000B0F5000FD5
:1027300013D3B0F1807F06D340084FEA310102F194
:102740000102FE2A51D2B1F1004F40EBC25008BF46
:1027500020F0010040EA03007047490040EB000010
:1027600010F4000FA2F10102EDD1B0FA80FCACF13F
:10277000080CB2EB0C0200FA0CF0AABF00EBC2503E
:1027800052421843BCBFD0401843704792F0000F2C
:1027900081F4000106BF80F400000132013BB5E77F
:1027A0004FEA41037FEA226C18BF7FEA236C21D0F5
:1027B00092EA030F04D092F0000F08BF084670475A
:1027C00090EA010F1CBF0020704712F07F4F04D128
:1027D000400028BF40F00040704712F100723CBF3B
:1027E00000F50000704700F0004343F0FE4040F465
:1027F000000070477FEA226216BF08467FEA236323
:102800000146420206BF5FEA412390EA010F40F40D
:10281000800070474FF0000304E000BF10F0004359
:1028200048BF40425FEA000C08BF704743F0964340
:1028300001464FF000001CE050EA010208BF70475B
:102840004FF000030AE000BF50EA010208BF7047E2
:1028500011F0004302D5404261EB41015FEA010CF7
:1028600002BF84460146002043F0B64308BFA3F1EF
:102870008053A3F50003BCFA8CF2083AA3EBC253D1
:1028800010DB01FA02FC634400FA02FCC2F12002F0
:10289000BCF1004F20FA02F243EB020008BF20F027
:1028A0000100704702F1200201FA02FCC2F120028D
:1028B00050EA4C0021FA02F243EB020008BF20EA82
:1028C000DC7070474FF0FF0C1CEAD0521EBF1CEAB0
:1028D000D15392EA0C0F93EA0C0F6FD01A4480EA9E
:1028E000010C400218BF5FEA41211ED04FF0006387
:1028F00043EA501043EA5111A0FB01310CF00040B3
:10290000B1F5000F3EBF490041EAD3715B0040EAD8
:10291000010062F17F02FD2A1DD8B3F1004F40EBA8
:10292000C25008BF20F00100704790F0000F0CF07B
:10293000004C08BF49024CEA502040EA51207F3A3F
:10294000C2BFD2F1FF0340EAC250704740F400001A
:102950004FF00003013A5DDC12F1190FDCBF00F00B
:1029600000407047C2F10002410021FA02F1C2F1B9
:10297000200200FA02FC5FEA310040F1000053EA55
:102980004C0308BF20EADC70704792F0000F00F0A3
:10299000004C02BF400010F4000F013AF9D040EAA9
:1029A0000C0093F0000F01F0004C02BF490011F43D
:1029B000000F013BF9D041EA0C018FE70CEAD1533B
:1029C00092EA0C0F18BF93EA0C0F0AD030F0004CBB
:1029D00018BF31F0004CD8D180EA010000F000406F
:1029E000704790F0000F17BF90F0004F084691F02D
:1029F000000F91F0004F14D092EA0C0F01D1420267
:102A00000FD193EA0C0F03D14B0218BF084608D12F
:102A100080EA010000F0004040F0FE4040F4000079
:102A2000704740F0FE4040F4400070474FF0FF0C0C
:102A30001CEAD0521EBF1CEAD15392EA0C0F93EA53
:102A40000C0F69D0A2EB030280EA010C49024FEAA5
:102A5000402037D04FF0805343EA111143EA10135E
:102A60000CF000408B4238BF5B0042F17D024FF416
:102A7000000C8B4224BF5B1A40EA0C00B3EB510FF1
:102A800024BFA3EB510340EA5C00B3EB910F24BFDA
:102A9000A3EB910340EA9C00B3EBD10F24BFA3EB5F
:102AA000D10340EADC001B0118BF5FEA1C1CE0D127
:102AB000FD2A3FF650AF8B4240EBC25008BF20F0DA
:102AC000010070470CF0004C4CEA50207F32C2BF2E
:102AD000D2F1FF0340EAC250704740F400004FF0CB
:102AE0000003013A37E792F0000F00F0004C02BFFC
:102AF000400010F4000F013AF9D040EA0C0093F0C6
:102B0000000F01F0004C02BF490011F4000F013B1F
:102B1000F9D041EA0C0195E70CEAD15392EA0C0F87
:102B200008D142027FF47DAF93EA0C0F7FF470AFBF
:102B3000084676E793EA0C0F04D14B023FF44CAF02
:102B400008466EE730F0004C18BF31F0004CCAD197
:102B500030F000427FF45CAF31F000437FF43CAFD3
:102B60005FE700BF4FF0FF3C06E000BF4FF0010CF5
:102B700002E000BF4FF0010C4DF804CD4FEA4002D7
:102B80004FEA41037FEA226C18BF7FEA236C11D021
:102B900001B052EA530C18BF90EA010F58BFB2EBD4
:102BA000030088BFC81738BF6FEAE17018BF40F054
:102BB000010070477FEA226C02D15FEA402C05D108
:102BC0007FEA236CE4D15FEA412CE1D05DF8040B8D
:102BD000704700BF844608466146FFE70FB5FFF720
:102BE000C9FF002848BF10F1000F0FBD4DF808EDD8
:102BF000FFF7F4FF0CBF012000205DF808FB00BFC9
:102C00004DF808EDFFF7EAFF34BF012000205DF822
:102C100008FB00BF4DF808EDFFF7E0FF94BF01206F
:102C200000205DF808FB00BF4DF808EDFFF7D2FF6C
:102C300094BF012000205DF808FB00BF4DF808EDAF
:102C4000FFF7C8FF34BF012000205DF808FB00BF7C
:102C50004FEA4002B2F1FE4F0FD34FF09E03B3EBA9
:102C600012620DD94FEA002343F0004310F0004FE9
:102C700023FA02F018BF404270474FF0000070473F
:102C800012F1610F01D1420205D110F0004008BFDE
:102C90006FF0004070474FF00000704740EA0103BA
:102CA0009B0770B42BD1032A29D90C460346214631
:102CB00054F8046BA6F1013525EA060515F0803FAE
:102CC00006D1043A032A43F8046B2146EFD8A2B197
:102CD0000C781C70013A013301313CB16AB111F832
:102CE000014B03F8014B013A002CF7D12AB11A44E9
:102CF000002103F8011B9A42FBD170BC70470346C8
:102D0000E5E700BF48656C6C6F2F6E0000000100A6
:102D100002000100030001000200010004000100A4
:102D20000200010003000100020001000500010093
:102D30000200010003000100020001000400010084
:102D40000200010003000100020001000600010072
:102D50000200010003000100020001000400010064
:102D60000200010003000100020001000500010053
:102D70000200010003000100020001000400010044
:102D80000200010003000100020001000700010031
:102D90000200010003000100020001000400010024
:102DA0000200010003000100020001000500010013
:102DB0000200010003000100020001000400010004
:102DC00002000100030001000200010006000100F2
:102DD00002000100030001000200010004000100E4
:102DE00002000100030001000200010005000100D3
:102DF00002000100030001000200010004000100C4
:102E00000200010003000100020001003F00000079
:0E2E100075432F4F532D49492049646C6500CE
:102E1E000000000001020304010203040607080972
:0400000508000000EF
:00000001FF
